:020000040800F2
:10000000A8070020A1010008B51D0008231400085E
:10001000B11D00085D1200082B210008000000003F
:10002000000000000000000000000000CD1E0008DD
:100030006112000800000000B71D0008E11F000861
:10004000BB010008BB010008BB010008BB010008A0
:10005000BB010008BB010008BB010008BB01000890
:10006000BB010008BB010008BB010008BB01000880
:10007000BB010008BB010008BB010008BB01000870
:10008000BB010008BB010008BB010008BB01000860
:10009000BB010008BB010008BB010008BB01000850
:1000A000BB010008BB010008BB010008BB01000840
:1000B000BB010008BB010008BB010008BB01000830
:1000C000BB010008BB010008BB010008BB01000820
:1000D000BB01000845200008BB010008BB01000867
:1000E000BB010008BB010008BB01000800F002F8DA
:1000F00000F047F80AA090E8000C82448344AAF17B
:100100000107DA4501D100F03CF8AFF2090EBAE878
:100110000F0013F0010F18BFFB1A43F0010318473B
:100120008C6E0000AC6E0000103A24BF78C878C115
:10013000FAD8520724BF30C830C144BF04680C60ED
:10014000704700000023002400250026103A28BF35
:1001500078C1FBD8520728BF30C148BF0B60704739
:10016000662903F05381002070471FB500F012FB91
:1001700004000020002102F035FBE0601FBD10B537
:1001800010BD00F00BFC1146FFF7EFFF02F048FA3C
:1001900000F029FC03B4FFF7F2FF03BC02F048F8BB
:1001A0000948804709480047FEE7FEE7FEE7FEE70B
:1001B000FEE7FEE7FEE7FEE7FEE7FEE70448054947
:1001C000054A064B70470000E51F0008ED000008D7
:1001D000A8010020A8070020A8030020A8030020F1
:1001E000704700000FB41CB5074B06AA7B44694654
:1001F0000090059800F0B5FA0020694600F0C4FAB6
:100200001CBC5DF814FB0000990500002DE9F047C7
:100210004FF0000A89460446C0F820A02046E16855
:100220008847002876D0252806D0D4E901219047B8
:10023000206A401C2062F1E7E168204600258847DB
:10024000C4F81CA006460027C4F818A02A2E09D01E
:10025000304601F0E6FF38B304EB8708303EC8F8BB
:10026000186019E059F8041B204604EB87029161DD
:10027000E1688847012F064618D1E069002820DA96
:1002800025F020051DE0D8F8180000EB800006EBF3
:1002900040003038C8F818002046E1688847064614
:1002A00001F0BFFF0028EED1012F0AD02E2E08D179
:1002B0002046E16888477F1C0646022F45F020054E
:1002C000C4DBA069002803DA404245F00105A061C3
:1002D000E80701D025F01005B6B1A6F141001928B4
:1002E00002D8203645F400654A463146204625604E
:1002F0004D46FFF735FF58B1012806D0ED1D25F01A
:10030000070000F1080989E704E005F1040985E721
:1003100030468AE7206ABDE8F0877047704770472B
:10032000704710B500F03AFA006810BD10B50446E9
:1003300000F034FA046010BD70472DE9FF4F0C4601
:100340001E464FF0FF378BB0D2E90001DDF8608028
:100350000A908A46C1F30A5505B93D460021084670
:100360004FF00000BAF1000F00F4400005DA00EB96
:1003700080004FF4400101EA50004FEA9059B9F172
:10038000010F00DDB9460A9850EA4A000ED044F643
:100390001050A5F2FF3545432F14B8F1000F1ED0C1
:1003A0007542291E1EDDC9F100021CE0B8F1010FE3
:1003B0004FF0000001D0302103E0F24305E021546A
:1003C000401CB042FBDB30460022002121540B9937
:1003D000C1F80880C1E900200FB0BDE8F08FBD1B57
:1003E0006D1CDEE74A4600DA694206A800F060FAB2
:1003F00006AB93E8070003AB83E8070050460A9971
:1004000000F03AFB8DE80700A0F500501F3800907F
:100410000398002D0ADD42F21F014A4608440023DA
:1004200003A90390684600F0A3FD09E0A0F5005081
:100430004A461F38002303A90390684600F0ADFD2B
:100440008DE807000004000C03D04FF0FF30410896
:1004500000E01046B8F1000F03D0002200921546CC
:100460001EE0751E05D400F09DF9303262556D1EF8
:10047000F9D5B3460122084302D000227F1C04E0D4
:100480002078302801D100227F1E002A099784D0CD
:100490001DE0112D07DA00F085F9303262556D1C30
:1004A00050EA0102F5D1084302D00098C8B10EE02D
:1004B0000021681E05E0235C625C63542254401EE8
:1004C000491C8142F7DBAB46A81B401E0990002067
:1004D00004F80B000B98099AC0F80880C0E9002BBB
:1004E0007AE711264FF0000857E72DE9F04F8846CC
:1004F0000446D21D22F0070191B0D1E90001CDE9F7
:100500000A0101F014FE02460B98C00F01D02D2005
:1005100007E02068810701D52B2002E0202101EAB5
:10052000C000032A099001D0072A05DB0346414693
:10053000204600F07DF90BE12078800601D5E069C6
:1005400000E00620B8F1650F814606D0B8F1660FCD
:1005500018D0B8F1670F70D131E00020B9F1110F58
:10056000009001DB112301E009F101030AAA01A9AE
:100570000CA8FFF7E2FEDDE90C70002609F1010589
:10058000834647E001204B4600904FF000470AAAFF
:1005900001A90CA8FFF7D1FEDDE90DB00C995D466D
:1005A000002610B909F101000D18B9EB050003D4BC
:1005B000C0F1FF3609F10105A5EB09002BE0B9F107
:1005C000010F01DA4FF001090020B9F1110F00907D
:1005D000484601DD112300E003460AAA01A90CA840
:1005E000FFF7ABFEDDE90C704D4600268346207810
:1005F00000070AD4AB4500DA5D4601A8012D04DDF1
:10060000411911F8011C302907D04F4502DA17F1C2
:10061000040F04DA012082460FE06D1EEEE7002F82
:1006200002DCED1B3E4403E0781CA84200DD7D1C8B
:10063000B81B00F1010A4FF000472078000703D4EF
:10064000AA4501DB4FF0FF3A0021B7F1004F0DF151
:1006500043088DF8431024D002202B23002F01DA09
:100660007F422D230A21021EA0F1010000DC5FB1B0
:1006700097FBF1FC97FBF1F201FB1C7C17460CF198
:10068000300C08F801CDEEE7A8F1010003702188D5
:10069000090501D5452100E06521A0F1010800F818
:1006A000011C09980FA9A1EB0807FF1D00B101204B
:1006B000411901EBEA70A1693844081A401EA06193
:1006C0002078C00602D42046AFF30080099828B1F4
:1006D000D4E901219047206A401C20622078C0069E
:1006E00022D52046AFF300801EE0002E04DBB34588
:1006F00002DD01A8805D00E03020D4E901219047AF
:10070000206A401C2062761CAAF101005FEA000A00
:100710000AD100F03FF8C0680168405CD4E90121CB
:100720009047206A401C2062281EA5F10105DCDCF0
:1007300007E0D4E9012118F8010B9047206A401C1A
:100740002062381EA7F10107F3DC2046AFF30080DA
:10075000032011B041E6000001694A1C02610878DB
:10076000704700B58FB0CDE90131002105910549F1
:100770007944CDE9031011466846FFF747FD0FB0F5
:1007800000BD0000E5FFFFFF0A6802F8010B0A60E8
:10079000704700000048704764010020004870471F
:1007A0004401002030B5B0F10A024FEA900E71F119
:1007B00000034EEA817EB0EB0E0061EB91014FEA3F
:1007C000101E4EEA017E10EB0E0041EB11114FEAB4
:1007D000102E4EEA016E10EB0E0041EB11214FEA94
:1007E000104E4EEA014E10EB0E0041EB1141401845
:1007F00041F100014FEAD00040EA41704FEAD101D7
:1008000010EB80054FEA810444EA907444EB010444
:100810006D1944EB0404521BA3414FF0000348BF81
:100820000A3200D530BD401C41F1000130BD00004E
:100830002DE9F0411F46044603260168072A01F40A
:10084000006004DB08B116A505E016A503E008B1B9
:1008500015A500E015A521F010002060A069C01EBC
:10086000A0610FB1401EA0612046AFF300804FB1E0
:10087000D4E9012138469047206A401C2062C01C00
:10088000206206E0206AFAE7D4E9012115F8010B9D
:100890009047761EF8D22046AFF30080BDE8F08185
:1008A0004E414E006E616E00494E4600696E660014
:1008B0002DE9F047814616468AB0354878440DC880
:1008C0008DE80D0032487844801C03AC0DC884E8E4
:1008D0000D0041F69B300844372190FBF1F290FB6C
:1008E000F1F5A5F1800501FB12041B3C02D5644221
:1008F000012000E00020DFF898A080460027FA449D
:10090000AAF1BE0A0EE0E0070AD03246684607EBBD
:10091000470101230AEB810100F03FFB8DE807004E
:1009200064107F1C002CEED1194F7F44AE3F19E0BC
:10093000E80715D007EB04100DF1180A90E80E0037
:100940008AE80E00C068F04201D19819089032463A
:10095000012306A903A800F020FB03AB83E80700EE
:100960006D10641C002DE3D14FF00103324669463F
:10097000B8F1000F03A802D000F0FAFA01E000F08D
:100980000CFBC9E90001C9F808200AB0BDE8F087EE
:100990001C66000000487047440100207546FFF7C0
:1009A000F9FFAE4605006946534620F0070085462C
:1009B00018B020B5FFF702FCBDE820404FF000065C
:1009C0004FF000074FF000084FF0000B21F0070137
:1009D000AC46ACE8C009ACE8C009ACE8C009ACE87A
:1009E000C0098D46704710B50446AFF3008020461D
:1009F000BDE81040FFF7CEBB4FF0013C50F8042B90
:100A000051F8043B9A4221D1A2EB0C03934313EA21
:100A1000CC1317D150F8042B51F8043B9A4215D14E
:100A2000A2EB0C03934313EACC130BD150F8042B25
:100A300051F8043B9A4209D1A2EB0C03934313EA09
:100A4000CC13DBD04FF00000704700BFD01A01BAC2
:100A5000B1FA81F101F0180122FA01F0CB40C1F1A5
:100A60002001DBB2C0B2C01A2CFA01F3D11A9143B3
:100A700011EAC311E6D170475FEA400C08BF91F05C
:100A8000000F4FEA8C234FEAC12243EA51514FEA4B
:100A90001C5018BF00F5F0404FEA300018BF41F07D
:100AA00000415FEA6C5C00F02980BCF1FF3F08BFA9
:100AB00040F080407047130C06BF12044FF0100C3A
:100AC0004FF0000C130E04BF12020CF1080C130FB0
:100AD00004BF12010CF1040C930F04BF92000CF13F
:100AE000020CD30F04BF52000CF1010C11464FF061
:100AF0000002A0F11F00A0EB0C00704711F0004FA6
:100B000008BF704731F000413FF4D5AF0B0C06BF72
:100B100009044FF0100C4FF0000C0B0E04BF09023B
:100B20000CF1080C0B0F04BF09010CF1040C8B0F26
:100B300004BF89000CF1020CCB0F04BF49000CF17B
:100B4000010CCCF12003A0EB0C0022FA03F302FA13
:100B50000CF241EA030100F10100704720F07F4CE4
:100B600080EA030023F07F47ACEB070303F57C53D7
:100B700000F0004003F1FF032DE980494FEA154BD7
:100B800009B44FEA144325EA0B4E24EA03480FF256
:100B9000042606EB132749083E785FEA320203FB7E
:100BA0000667C7F5000707FB06F64FEA54374FEA1A
:100BB000D64606F1020607FB066CCCF1005C4FEA54
:100BC0001C472CEA074C07FB06F40CFB06F504EB6C
:100BD00015464FEA961634BF00204FF000404FEA0A
:100BE000D13706FB07FC4FEA1C4C0CFB0BF7D21B62
:100BF00003FB0CF761EB07010CFB0EF7B0EB0740B2
:100C000072EB17420CFB08F734BFA2EB0742B2EBC2
:100C1000074261EB17414FEA0C444FEA910706FB8C
:100C200007FC4FEA1C4C0CFB0BF7B0EBC74072EB18
:100C3000573203FB0CF734BFA2EBC742B2EBC742FB
:100C400061EB57310CFB0EF7B0EBC70072EB57723C
:100C50000CFB08F734BFA2EBC702B2EBC70261EB93
:100C60005771039F4FEA816141EA921104EBCC0472
:100C70004FEAD1374FEA826206FB07FC42EA901244
:100C80004FEA80604FEA1C4C0CFB0BF7D21B03FBB6
:100C90000CF761EB07010CFB0EF7B0EB074072EBB2
:100CA00017420CFB08F734BFA2EB0742B2EB074236
:100CB00061EB17414FEA8C554FEA910704EB9C24F6
:100CC00006FB07FC4FEA1C4C0CFB0BF7B0EBC740D4
:100CD00072EB573203FB0CF734BFA2EBC742B2EB07
:100CE000C74261EB57310CFB0EF7B0EBC70072EB5C
:100CF00057720CFB08F734BFA2EBC702B2EBC70276
:100D000061EB577115EB4C254FEA816141EA921175
:100D10004FEA82624FEAD13742EA901206FB07FCA3
:100D200044F100044FEA80604FEA1C4C0CFB0BF7C7
:100D3000D21B03FB0CF761EB07010CFB0EF7B0EBCA
:100D4000074072EB17420CFB08F734BFA2EB0742D7
:100D5000B2EB074261EB174115EB1C154FEA8131ED
:100D600041EA92414FEA823242EA90424FEA8030B1
:100D70004FEA0C7644F1000448EA03434EEA0B487C
:100D80004FF0000EB2EB080C71EB030724BF624674
:100D900039464EEB0E0E4FF0000B00185241494100
:100DA0004BEB0B0BB2EB080C71EB03077BF1000B69
:100DB00024BF624639464EEB0E0E4FF0000B001872
:100DC000524149414BEB0B0BB2EB080C71EB0307A3
:100DD0007BF1000B24BF624639464EEB0E0E51EA02
:100DE000020718BF46F0010616EB0E7655F1000219
:100DF00054F1000103D5BDE88901BDE80088BDE8D4
:100E00008901BDE80048B619524141EB0101A3F147
:100E10000103704780807F7E7D7C7B7A797877764E
:100E200076757473727171706F6E6E6D6C6C6B6AC7
:100E30006A69686867666665646463636261616065
:100E4000605F5F5E5E5D5D5C5C5B5B5A5A595958E2
:100E5000585757565655555554545353525252514C
:100E6000515050504F4F4F4E4E4D4D4D4C4C4C4BA2
:100E70004B4B4A4A4A4949494848484747474746E9
:100E80004646454545444444444343434342424225
:100E900042414141002B9C4630D477002BD01CB5F9
:100EA0004FEA370703B44FF010004FF01001BAF1CA
:100EB000000F06D0BCF1000FDCBF40F0080040F08E
:100EC00008014FF000000FBCBDE810400BF1010B12
:100ED000BBF1010F08BF5FEA170722BF12F1010241
:100EE00011F101014FF0004143F1000300F0004017
:100EF00043EA00007047F9D35708D0E746EA0646B0
:100F000013F1400F4FEA16461FDD13F1200FDFBF2C
:100F100016430A46002120335B42BED0C3F12007AE
:100F200046EA064602FA07F74FEA164646EA070679
:100F3000C3F1200722FA03F201FA07F721FA03F1BD
:100F40004FF0000342EA0702A7E746EA020646EA34
:100F500006464FEA164646EA0106BCBF46EA064682
:100F6000360C4FF000034FF000024FF0000194E701
:100F70002DE9804C9A46934670B491E8380007C832
:100F800031EA400C48BF34EA430C03D5FFF7E6FDD5
:100F9000FFF780FFF0BCBDE8008C2DE9804C9A463D
:100FA000934670B491E8380007C810F0804F08BF2E
:100FB00013F0804F03D100F005F8FFF76BFFF0BC92
:100FC000BDE8008C20F07F4780EA030023F07F4CCF
:100FD00007EB0C03A3F57C5300F00040A3F1FE03E4
:100FE00092F0000F00F0B38095F0000F00F07780D2
:100FF0002DE901494FEA11404FEA144621EA004821
:1010000000FB06FC24EA064708FB06F607FB08F887
:1010100000FB07F718EB06484CEB164C4FEA124B57
:1010200018EB07484FEA15464CEB174022EA0B4EE7
:101030000BFB06FC25EA06470EFB06F607FB0EFE39
:101040000BFB07F71EEB064E4CEB164C4FF0000661
:101050001EEB074E4CEB174B18EB0B0840F1000052
:1010600018EB0E0B58EB000840F100008F1A4FF000
:1010700000013CBFC943661B14BFB5EB040C002143
:101080003CBFC943F61B4FEA17444EEA8E0E27EACF
:1010900004454FEA1C4704FB07622CEA074C05FB9A
:1010A00007F70CFB05F604FB0CFC16EB074642EBBE
:1010B000174216EB0C4642EB1C421BEB060658EBA4
:1010C0000202414146EA9E0601D5BDE80189B619F2
:1010D000524141EB0101A3F10103BDE801894FEA4F
:1010E00014454FEA114724EA054621EA074C05FB5F
:1010F00007F406FB07F70CFB06F105FB0CFC11EBF4
:10110000074144EB17444FEA124711EB0C4144EB03
:101110001C4422EA074C05FB07F206FB07F70CFB11
:1011200006F605FB0CFC16EB074642EB174216EBE6
:101130000C4642EB1C456A1854F1000148BF704749
:10114000B619524141EB0101A3F10103704795F03B
:10115000000F37D04FEA11424FEA144721EA024606
:1011600024EA074C02FB07F106FB07F70CFB06F429
:1011700002FB0CFC14EB074441EB17414FEA154707
:1011800014EB0C4441EB1C4125EA074C02FB07F52C
:1011900006FB07F70CFB06F602FB0CFC16EB0746FA
:1011A00045EB174516EB0C4645EB1C42121951F165
:1011B000000148BF7047B619524141EB0101A3F14C
:1011C000010370474FEA14454FEA114724EA0546E8
:1011D00021EA074C05FB07F106FB07F70CFB06F2BB
:1011E0004FF0000605FB0CFC12EB074241EB1741E8
:1011F00012EB0C4251EB1C4148BF7047921841EB77
:101200000101A3F10103704710B500F00DF90122AF
:10121000FF21462000F0E2F910BD00002DE9F8435F
:1012200002236A462021462000F03AF99DF8011079
:101230009DF8002041EA022001F09BFD07464FF097
:101240003332054B01F0D2FB054601F0E1FA0446CA
:101250002046BDE8F88300003333F33F00BFFEE7CC
:1012600070472DE9F04102460025002600200023AA
:101270000024002791F803C00CF00F0591F803C07B
:101280000CF0100CBCF1000F03D091F802C04CEA36
:10129000050591F800C0BCF1000F31D014680020A2
:1012A0002BE04FF0010C0CFA00F3B1F800C00CEA8F
:1012B00003069E4220D183004FF00F0C0CFA03F777
:1012C000BC4305FA03FC4CEA040491F803C0BCF1EA
:1012D000280F06D14FF0010C0CFA00FCC2F814C024
:1012E0000AE091F803C0BCF1480F05D14FF0010CA2
:1012F0000CFA00FCC2F810C0401C0828D1D31460BE
:10130000B1F800C0BCF1FF0F34DD546800202EE0BE
:1013100000F1080C4FF0010808FA0CF3B1F800C016
:101320000CEA03069E4221D183004FF00F0C0CFA09
:1013300003F7BC4305FA03FC4CEA040491F803C02C
:10134000BCF1280F05D100F1080C08FA0CF8C2F81E
:10135000148091F803C0BCF1480F07D100F1080CCC
:101360004FF0010808FA0CF8C2F81080401C082859
:10137000CED35460BDE8F081F0B50A4600230024C6
:101380000021002500F00046B6F1004F02D11D4EAD
:10139000F16901E01B4E7168C0F3034583B200F4AC
:1013A0004016B6F5401F08D121F07061154E7668E1
:1013B00026F07066134F7E6012E000F48016B6F5DA
:1013C000801F06D1032606FA05F4A14341F070619F
:1013D00006E0460D360103FA06F6B14341F07061AE
:1013E00022B1460D360103FA06F6314300F00046FD
:1013F000B6F1004F02D1034EF16101E0014E716080
:10140000F0BD0000000001400246002093680B4040
:101410000BB1012000E0002070474161704701617D
:10142000704700BFFEE7000000B585B0012109202C
:1014300000F0D2FC0121880500F0BEFC1C208DF8D4
:1014400013004FF44060ADF8100003208DF8120037
:1014500004A91048FFF705FF0020ADF80A004FF47B
:101460008040ADF80C000C4800904BF6FF70ADF8D2
:1014700006000020ADF804000B20ADF80800694616
:10148000064800F073F90121044800F02EF905B078
:1014900000BD0000000C0140400D0300005800405A
:1014A0002DE9F04706460F4690469946474C0121E4
:1014B000474800F026F900E0641E4649444800F021
:1014C000FFF808B9002CF7D10CB9BDE8F0873F4C04
:1014D000002231463E4800F0CDF900E0641E3E494E
:1014E0003B4800F0EDF808B9002CF7D104B9ECE75F
:1014F000364CFF2F10D03946354800F0C4F900E0D3
:10150000641E3549891C324800F0DAF808B9002C0D
:10151000F6D104B9D9E72D4C01212D4800F0F1F89E
:1015200000E0641E2B492A4800F0CAF808B9002CD4
:10153000F7D104B9C9E7254C0121254800F0B4F8DA
:1015400001223146224800F095F900E0641E21494D
:10155000491C1F4800F0B4F808B9002CF6D104B9B2
:10156000B3E71A4C002513E000E0641E19493F312F
:10157000174800F0A5F808B9002CF6D104B9A4E783
:10158000124C13481030008808F80500681CC5B2DA
:101590004D45E9DB00210E4800F086F84FF2FF715F
:1015A0000B4800F059F90121094800F0B6F800E0B5
:1015B000641E4FF40031064800F0BBF808B1002C5F
:1015C000F6D104B981E700BF7FE70000A0860100E3
:1015D0000058004001000300820007002DE9F0419F
:1015E00005460E4617462C4C01212C4800F089F880
:1015F00000E0641E2A49294800F062F808B9002C6E
:10160000F7D10CB9BDE8F081234C002229462348CC
:1016100000F030F900E0641E2249204800F050F844
:1016200008B9002CF7D104B9ECE71B4CFF2E10D001
:1016300031461A4800F027F900E0641E1949891C58
:10164000164800F03DF808B9002CF6D104B9D9E7E6
:10165000114C3946114800F016F900E0641E11499A
:10166000891C0E4800F02CF808B9002CF6D104B9FA
:10167000C8E7094C0121094800F04FF800E0641E5A
:101680004FF40031054800F054F808B1002CF6D1B1
:1016900004B9B7E700BFB5E7A086010000580040D5
:1016A000010003008200070021B1028842F4806239
:1016B000028004E002884FF6FF331A400280704730
:1016C00070B502460024002500230020958A138B64
:1016D0001B0445EA030626F07F4404EA01068E4215
:1016E00001D1012000E0002070BD21B1028842F04C
:1016F0000102028004E002884FF6FE731A40028065
:10170000704721B1028842F48072028004E00288AE
:101710004FF6FF631A400280704721B1028842F4FD
:101720000072028004E002884FF6FF531A400280E4
:1017300070470CB5024600200023019300930092ED
:101740000B0F019321F07F41019B1BB1009B1433D0
:10175000009303E0090C009B18330093009B1B6867
:101760000B400BB1012000E000200CBD2DE9F0433F
:1017700085B004460D460026B1460427DFF8CC802C
:10178000A6884FF6C0700640684600F035FBDDF8CD
:1017900008802F48B8FBF0F01FFA80F946EA0906E6
:1017A000A68020884FF6FE71084020800026294937
:1017B000286888420CD828684000B8FBF0F087B24F
:1017C000042F00DA04273E4309F10100208427E0BA
:1017D000E8884BF6FF71884206D1286800EB40008C
:1017E000B8FBF0F087B209E0286800EBC00101EB1C
:1017F0000010B8FBF0F087B247F48047C7F30B0046
:1018000008B947F0010747F4004006434FF49670CB
:1018100009FB00F04FF47A7190FBF1F0401C20843A
:10182000A683208840F00100208026884FF6F530FE
:101830000640A8886989084306432680A889298923
:101840000843208105B0BDE8F083000000127A0053
:1018500040420F00A0860100B1F5006F04D102885C
:1018600042F40062028004E002884FF2FF731A40E3
:101870000280704712B141F0010102E04FF6FE73A1
:1018800019400182704701827047000008B50121AC
:10189000042000F0A1FA4FF4C850ADF80000042075
:1018A0008DF8030069460748FFF7DBFC4FF4007032
:1018B000ADF8000004208DF8030069460248FFF7E8
:1018C000D0FC08BD00080140001001402DE9F041A6
:1018D00007460C4615461E462A2000F02FFA3846C9
:1018E00000F01DFA284600F01AFA2B2000F026FA24
:1018F000204600F014FA304600F011FA2C2000F0D7
:101900001DFABDE8F08170B504460D4616462B461B
:10191000224629462046FFF7D9FF304600F0FFF95E
:1019200070BD2DE9F04706460F4614461D46DDF80A
:1019300020A0681E83B2601E82B239463046FFF78F
:10194000C5FFB8460EE0B14606E0504600F0E7F9A4
:1019500009F101001FFA80F9A145F6DB08F1010049
:101960001FFA80F8A845EEDBBDE8F08708B5012135
:10197000392000F031FA01211648FFF7FDFC7820EC
:10198000ADF8000010208DF8030003208DF8020050
:1019900069461148FFF765FC78210F48FFF73FFDC6
:1019A0000420ADF8000069460C48FFF75AFC0421FA
:1019B0000A48FFF734FD4FF48050ADF80000694647
:1019C0000748FFF74EFC4FF480510548FFF727FD0D
:1019D00008BD000000023000000C0140001401406E
:1019E0000010014010B5FFF7C1FF40216348FFF729
:1019F00014FD642000F040FC40216048FFF70FFD1B
:101A0000642000F039FC4FF480515D48FFF707FD7A
:101A1000642000F031FC112000F090F9782000F0F3
:101A20002BFC362000F08AF9002000F081F93A20E2
:101A300000F084F9052000F07BF9B22000F07EF977
:101A40000C2000F075F90C2000F072F9002000F075
:101A50006FF9332000F06CF9332000F069F9B720FA
:101A600000F06CF9352000F063F9BB2000F066F956
:101A7000322000F05DF9C22000F060F9012000F092
:101A800057F9C32000F05AF9152000F051F9C4208D
:101A900000F054F9202000F04BF9C62000F04EF978
:101AA0000F2000F045F9D02000F048F9A42000F004
:101AB0003FF9A12000F03CF9E02000F03FF9D020F0
:101AC00000F036F9082000F033F90E2000F030F96C
:101AD000092000F02DF9092000F02AF9052000F076
:101AE00027F9312000F024F9332000F021F94820B3
:101AF00000F01EF9172000F01BF9142000F018F96F
:101B0000152000F015F9312000F012F9342000F012
:101B10000FF9E12000F012F9D02000F009F90820B7
:101B200000F006F90E2000F003F9092000F000F99A
:101B3000092000F0FDF8152000F0FAF8312000F03F
:101B4000F7F8332000F0F4F8482000F0F1F81720FF
:101B500000F0EEF8142000F0EBF8152000F0E8F8A3
:101B6000312000F0E5F8342000F0E2F8212000F008
:101B7000E5F8292000F0E2F810BD0000000C01405B
:101B8000001001402DE9FF5F80468A4617469B46BC
:101B90000F9D00200290CDF80080284605EBD07103
:101BA000C1F347042046E21704EB5272D2102146DB
:101BB000E31704EB5373DB10A4EBC3030BB1012356
:101BC00000E000231A446A4392B20192A7F1200078
:101BD000C7B20AEB0500401E83B208EB0400401EAA
:101BE00082B251464046FFF771FE002669E00C2D97
:101BF00007D107EB4700354901EB8000805D03907A
:101C00001BE0102D05D1324800EB0710805D0390DA
:101C100013E0182D07D107EB47002E4901EB001008
:101C2000805D039009E0202D05D12B4800EB871043
:101C3000805D039001E0BDE8FF9F4FF000093AE0AE
:101C40001098C8B9012000FA09F00399084018B1AA
:101C5000584600F064F802E00E9800F060F8029830
:101C6000401CC0B20290029890FBF4F104FB1100FA
:101C7000E8B90020029021E0012000FA09F0039960
:101C8000084020B15A4651464046FFF73CFE08F155
:101C900001001FFA80F80098A8EB0000A04206D1CE
:101CA000DDF800800AF101001FFA80FA06E009F170
:101CB000010000F0FF09B9F1080FC1DB00BF701C83
:101CC00086B20198864292DB00BFB4E70035000877
:101CD00074390008643F0008345100082DE9FE4FB4
:101CE00006460F4614469846DDE90D5ADDF8309059
:101CF00010E0CDE9015ACDF80090227843463946EC
:101D00003046FFF73FFF284605EBD07106EB610137
:101D10008EB2641C20780028EBD1BDE8FE8F10B590
:101D20000446201200F01AF8E0B200F017F810BDD7
:101D300010B50446204600F011F810BD10B5044659
:101D400004210548FFF769FB204600F007F804214D
:101D50000148FFF764FB10BD0014014070B5044654
:101D600008211248FFF759FB002517E010210F4802
:101D7000FFF753FB04F0800020B120210B48FFF750
:101D80004EFB03E020210948FFF747FB10210748DD
:101D9000FFF745FB6006040E681CC5B2082DE5DBA5
:101DA00008210248FFF73BFB70BD0000000C01401A
:101DB00000BFFEE77047704729B1064AD269024367
:101DC000044BDA6104E0034AD2698243014BDA61D1
:101DD000704700000010024029B1064A9269024390
:101DE000044B9A6104E0034A92698243014B9A6171
:101DF000704700000010024030B50021002200248E
:101E000000232D4D6D6805F00C0121B1042905D08A
:101E1000082923D105E0294D056022E0274D056002
:101E20001FE0254D6D6805F47012234D6D6805F4B3
:101E30008034022505EB92421CB9214D55430560C3
:101E40000BE01D4D6D6805F400351DB11C4D55436B
:101E5000056002E0194D5543056002E0174D05602D
:101E600000BF00BF144D6D6805F0F0010909154D64
:101E70006B5C0568DD4045600F4D6D6805F4E06101
:101E8000090A104D6B5C4568DD4085600A4D6D6840
:101E900005F46051C90A0B4D6B5C4568DD40C560B7
:101EA000054D6D6805F44041890B074D6B5CC568B5
:101EB000B5FBF3F5056130BD0010024000127A0059
:101EC00000093D005C0000206C000020704710B548
:101ED00000F002F810BD00000CB500200190009049
:101EE0003348006840F480303149086000BF304812
:101EF000006800F4003000900198401C01900098A8
:101F000018B90198B0F5A04FF1D12948006800F444
:101F1000003010B10120009001E0002000900098F6
:101F2000012843D12348006840F01000214908608F
:101F30000846006820F0030008600846006840F08A
:101F4000020008601A48406819494860084640681D
:101F500048600846406840F4806048600846406831
:101F600020F47C1048600846406840F4E81048605F
:101F70000846006840F08070086000BF0C480068A8
:101F800000F000700028F9D00948406820F00300F4
:101F9000074948600846406840F00200486000BFBA
:101FA0000348406800F00C000828F9D10CBD00007F
:101FB0000010024000200240042808D14FF0E02128
:101FC000096941F004014FF0E022116107E04FF090
:101FD000E021096921F004014FF0E022116170470E
:101FE0007047000010B51348006840F00100114927
:101FF000086008464068104908400E494860084695
:1020000000680E4908400B4908600846006820F443
:10201000802008600846406820F4FE0048604FF4C5
:102020001F008860FFF753FF4FF00060044908600D
:1020300010BD0000001002400000FFF8FFFFF6FE98
:1020400008ED00E010B540F225511D4800F03EF8C3
:1020500010B31B4800F064F8C4B21A48008800F4BA
:102060000040C8B91748008800F4804060B10A2CCD
:1020700003D000201349088020E01248008840F473
:1020800000401049088019E00D2C06D10D48008849
:1020900040F480400B49088010E00A480088C0F3F3
:1020A0000D0009490C5407480088401C0549088068
:1020B00008460088C72801DD0020088010BD000008
:1020C00000380140780000207C00002070B50246F6
:1020D000002400230025002040F66A16B14200D1FA
:1020E00000BFC1F3421501F01F03012606FA03F3F6
:1020F000012D02D19689334006E0022D02D1168AC5
:10210000334001E0968A33400C12012606FA04F4AB
:102110001688344013B10CB1012000E0002070BDDE
:1021200001468888C0F30800704700BFFEE74900F9
:1021300050EAC12018BF04204A0D18BF40F001002A
:1021400040F2FF72B2EB515F08BF40F0020001287D
:1021500008BF052070472DE9F0414F1E00EBC70175
:102160000446D1E9000115461E4637F006020DD09F
:102170002A46334600F050FE7F1E04EBC703D3E926
:10218000002300F077FB37F00602F1D1022F25D0B3
:10219000042F13D0062F18BFBDE8F0812A4633461E
:1021A00000F03AFED4E90A2300F064FB2A463346E5
:1021B00000F032FED4E9082300F05CFB2A463346E7
:1021C00000F02AFED4E9062300F054FB2A463346E9
:1021D00000F022FED4E9042300F04CFB2A463346EB
:1021E00000F01AFED4E9022300F044FB2A463346ED
:1021F00000F012FED4E90023BDE8F04100F03ABB44
:10220000002213461046014900F0F0BB0000F03FE9
:10221000012201F02FB9002213461046114600F0AA
:10222000E5BB30380A2801D20120704700207047F2
:1022300000BF704710B56FF00400FFF7BDFE0A48FD
:1022400000680A49B0FBF1F00949087008460078B7
:1022500000EB4001C1EBC0104FF6FF7101EAC00076
:102260000449088010BD00000000002000127A0020
:1022700070000020720000200146114A12884A4373
:102280004FF0E0235A6100229A611A46126942F027
:1022900001021A6100BF4FF0E022106900F0010254
:1022A0001AB100F48032002AF5D04FF0E022126912
:1022B00022F001024FF0E0231A6100229A61704778
:1022C000720000202DE9F04DC84A002490B09142E0
:1022D00005DA21F00043934201D805D120B110B0B6
:1022E000BDE8F04DFFF794BFB1F5801F1BDA53EA4C
:1022F000000209D0002911DA0120FEF717F810B00A
:10230000BDE8F04DFFF787BF0220FEF70FF8FFF79B
:1023100077FF10B081F00041BDE8F08D6FF035041B
:10232000362201F0A7F804EB2152C1F31308B0499B
:10233000A2F2FF33414401F4801282F07F6103EB8B
:10234000225281F04051009241EA08010022A94B3B
:1023500000F0FCFE044608F10200A74EC0F3130093
:102360000D467E44032867D2D6E90023204600F0BC
:1023700095FC1ED10098002802BFD6E9000110B0DC
:10238000BDE8F08D00F0F5FC07460C469B4A9C4BDF
:1023900000F042FD06460D469A4A9B4B38462146C0
:1023A00000F03AFD10B032462B46BDE8F04D00F08B
:1023B00061BA4FF05532954B2046294600F02CFD6E
:1023C0000022934B00F0B6FE06460F4622462B46EF
:1023D0001046194600F020FD32463B4600F01CFD39
:1023E000064600980F46F0B100F0C3FC80468A46CE
:1023F000824A834B00F010FD32463B4600F09AFEC5
:1024000022462B4600F0A2FE05460C467D4A7E4B36
:102410004046514600F000FD10B02A462346BDE874
:10242000F04D00F093BE0B4610B0324620462946D0
:10243000BDE8F04D00F08ABE00224FF080432046F8
:1024400000F018FA02460B462046294600F0CEFA64
:1024500006460F46009800F08CFCCDE90401324698
:102460003B461046394600F0D7FC0C9069480C9A60
:102470004044019009910B46104600F0CDFC824685
:10248000024665488B46C8F151080B4608F5D72827
:1024900003217844FFF75FFE52465B4600F0BCFC28
:1024A0000A905E480D9152465B4604217844FFF73E
:1024B00052FE099B0C9A00F0AFFC844601980D9BDC
:1024C00040EA080860460A9A00F0D4F98346089169
:1024D000B8F1000F4EDD4FF0FF322046294600F0E4
:1024E000C9FF22462B4600F097FC804600988A469A
:1024F00060B3DDE90401414A414B00F08DFC0991D4
:1025000000905A4640465146089B00F0B3F93246C7
:102510003B4600F081FC099B009A00F0ABF9424673
:10252000534600F007FE22462B4600F00FFE0446FD
:102530000D46DDE90401334A334B00F06DFC10B069
:1025400022462B46BDE8F04D00F000BE5A464046FC
:10255000089B00F08FF932463B4600F05DFC424696
:10256000534600F0E7FD10B022462B46BDE8F04D83
:1025700000F0E0BD009840B3DDE904011F4A204BA4
:1025800000F04AFC80468A465A4620462946089B67
:1025900000F0DCFD32463B4600F03EFC424653462E
:1025A00000F0D4FD22462B4600F0D0FD04460D4637
:1025B000DDE90401134A144B00F02EFC10B0224652
:1025C0002B46BDE8F04D00F0C1BD0B465A462046F3
:1025D000294600F0BBFD32463B4600F01DFC10B022
:1025E00022462B46BDE8F04D00F0A4BD0000F07F70
:1025F000645F09000000F03FF24A0000763C793544
:10260000EF39EA3D0000E0FE422EE63F5555D53F4A
:102610000000E03F86EBF9FF8A490000884900008E
:102620008AB0FFF707FEFFF7DDF9FFF72FF900206B
:10263000F0231A4601460090FFF773F9FEF7E4FD18
:1026400071E00A20FFF718FE4FF480713648FEF75C
:10265000DBFE002867D1FEF7E1FD0990099800F044
:102660005FFE80460022314B00F0C0F90646FFF7BE
:1026700029FE044600F0CCF88346099800F050FE8D
:10268000044622460B462AA104A8FDF7ABFD002014
:10269000102148F230424FF6FF73CDE9002102903D
:1026A00004AA2821FFF71AFB584600F039FE044619
:1026B00022460B4621A104A8FDF794FD002010211D
:1026C00048F230424FF6FF73CDE90021029004AA90
:1026D0003821FFF703FB584600F022FE064600F0C3
:1026E00037F8044600F016FB4FFA80FABAF1000FF3
:1026F00012DBBAF1100F0FDC0020102148F230423B
:10270000CDE900210290104850F82A204FF6FF73BF
:1027100048210020FFF7E2FA00200C4908709620BB
:10272000FFF7AAFD00BF8CE700080140000004404D
:102730004C75783A20252E316600000045563A2027
:10274000252E316600000000180000201400002033
:102750002DE9F04D07460E4600F092FC04460D466A
:102760003A46334600F0E6FCDFF86CA0DFF86CB0C8
:102770001B4B0746884616F0004F4FF000020AD068
:1027800000F00EFB0AD900225B463846414600F0B5
:1027900041FC1BD212E000F003FB08D2002253469A
:1027A0002046294600F0D2FC04460D460EE00022E9
:1027B0005B463846414600F02DFC07D800225346C0
:1027C0002046294600F056F804460D46314620467C
:1027D00065F31E01BDE8F08D0000F03F0000E03F12
:1027E0000000E0BF10B500290AD00878002807D003
:1027F00005487844FEF700F9002801D0002010BDFC
:102800000248784410BD0000DA470000D2470000BB
:1028100021F00042A2F16052B2F5801F01F00043A6
:1028200028BFD2F17F6C0BD95FEA001C43EAC202D9
:1028300042EB507018BF704728BF20F0010070476E
:10284000B2F5801FBCBF184670474FEA410C1CF51B
:10285000001F02D2084600F0D4BD70B500F086FB20
:1028600000000089FFF7F6BF4FF00040A0F58000A0
:102870007047000010B591EA030F48BF83F0004392
:1028800000F16C84841A71EB030C05D2121943EB2E
:102890000C03001B61EB0C01DFF824E14FEA11543B
:1028A000A4EB135C1EEA430F18BF9EEA445F73D08B
:1028B00023EA0E03DCF1200E21EA045143F48013D5
:1028C00032D322FA0CFE10EB0E0023FA0CFE41EB81
:1028D0000E01CCF1200E03FA0EFE10EB0E0051F1AA
:1028E0000001B1F5801FCCF1200E32D201EB045172
:1028F00012FA0EF2BDE8104058BF7047401C38BFB6
:102900005FEA420218BF7047002814BF20F00100A0
:1029100041F100014FEA410313F5001F38BF704732
:10292000A1F1C04100F070BB012A43EB0302ACF1FE
:10293000200CDCF11F0E32BF4FF0000E23FA0CF317
:1029400010EB030041EB0451B4EB115FD0D0A1EBCD
:10295000045101F5801149085FEA300001EB045190
:102960000ED350F1000038BF12FA0EFE08D1BDE8B8
:102970001040C9E7401C38BF5FEA4202CAD1C3E732
:10298000BDE810404FEA410313F5001F38BF704700
:10299000A1F1C04100F038BB9EEA445F08D011EAC3
:1029A0005E0FBDE8104004BF01F0004100207047F9
:1029B000BDE8104070B500F0D9FA00BF64FBBE3E20
:1029C0000000E0FF02494FF0000000F021BD00BF11
:1029D0000000F87F491058BFC1F140415B1058BF5B
:1029E000C3F140438B42EFF3008070472DE9C041B3
:1029F00030B4DFF8A0C23CEA111418BF3CEA13144B
:102A000000F0EC8081EA03051CEA111444EAD57455
:102A100018BF1CEA131500F0C780A4EB05044FF0A3
:102A2000004545EAC12145EAC32341EA505143EA42
:102A3000525304F17F74994204F500344FEAC020E8
:102A40004FEAC22208BF904200F09C804FEA136513
:102A50000FF24016765D4FEA134506FB05F7C7F106
:102A6000807706FB07F74FEAD737A7FB0368764264
:102A7000C8F58038A7FB06CE38BFA8F1010807FBD0
:102A800008E64FF0000EA6FB028CE6FB03CEDCF15D
:102A9000000CCEF1004E38BFAEF1010EA6FB0C5873
:102AA0004FF000074FF00005E6FB0E87A1FB08C6BC
:102AB000A0FB07CE16EB0E0645F10005E1FB07650E
:102AC00015F1E04E7EBFA4F580345FEA46066D4105
:102AD00016F1800745F100054FEA17274FEA066611
:102AE00047EA0567A6F1DE46B6F1805F4FEA152595
:102AF0001FD9384624F0010C05EBC471BCF1FE6F00
:102B000001EB0C1102D8F0BCBDE8008124425CBF8F
:102B100001F5801E9EEAC47F02D4F0BCBDE80081AE
:102B2000244238D4F0BCA1F1C041BDE8004100F01E
:102B30006BBA4FEAD22242EA43524FEAD323A7FBB1
:102B400002864FEAD02040EA415007FB03661EEAA6
:102B50000E0F4FEAD12105FB026658BFA6EB0056C7
:102B6000B6EB00564FEA520E4EEAC37E18EB0E0E3D
:102B700056EB530EBDD518EB02085E417F1C55F194
:102B80000005B6E74FF480154FF000074FF0000640
:102B90004FF00008ADE7F0BC4FF0000001F1C0417C
:102BA00001F00041BDE8008111EA0C1F0CEA131589
:102BB00000D00CE013EA0C1F00F025804FF000005D
:102BC000F0BC81EA030101F00041BDE80081F0BCE6
:102BD000BDE8004181EA030100F016BAF0BCBDE88F
:102BE000004170B500F0C2F9097EFC3E00F007B864
:102BF00081EA03014FF0000001F00041704781EAD3
:102C0000030100F001BAF0BCBDE800414FF0000044
:102C100021497047FFFDFBF9F7F5F4F2F0EEEDEB1B
:102C2000E9E8E6E4E3E1E0DEDDDBDAD8D7D5D4D3CA
:102C3000D1D0CFCDCCCBCAC8C7C6C5C4C2C1C0BF16
:102C4000BEBDBCBBBAB9B8B7B6B5B4B3B2B1B0AF1C
:102C5000AEADACABAAA9A8A8A7A6A5A4A3A3A2A100
:102C6000A09F9F9E9D9C9C9B9A99999897979695BB
:102C700095949393929191908F8F8E8E8D8C8C8B57
:102C80008B8A8989888887878685858484838382DF
:102C9000828181800000FF070000F87F51EA030C69
:102CA00017D41CF5801F58BFBCF5801F00F10680AB
:102CB000994218BF704708BF9042704707D711F577
:102CC000801F58BF13F5801F19D49942704789425D
:102CD00070471CF5801F08D5BCF5801FF7D58B42C7
:102CE00018BF704708BF824270474FF4001C1CEBAE
:102CF000410F38BF1CEB430F01D28B42704770B5B8
:102D000000F034F9922449004FF000514FF0805305
:102D1000FFF760BE4FEA41034FEA5353A3F58063C8
:102D2000D3F11E03C8BFD3F1210C0CDD4FF00042DC
:102D300042EAC12242EA505232FA03FC8CEAE17CB8
:102D4000ACEBE1707047102BC4BF0020704703F557
:102D5000787CBCF1FF3F04D06FF0004282EA210092
:102D6000704770B500F002F9499224800020704746
:102D7000F2E710F0004248BF4042B0FA80F310FA88
:102D800003F10AD0C3F11D0303F580634FEA4150FC
:102D900002EB035202EBD12170474FF00000704765
:102DA00051EA030C17D41CF5801F58BFBCF5801FD7
:102DB00000F10680994218BF704708BF90427047E3
:102DC00007D711F5801F58BF13F5801F19D49942FA
:102DD0007047894270471CF5801F08D5BCF5801FDD
:102DE000F7D58B4218BF704708BF824270474FF437
:102DF000001C1CEB410F38BF1CEB430F01D28B4270
:102E0000704770B500F0B2F8922449004FF00051BD
:102E10004FF08053FFF7DEBDDFF848C170B51CEA04
:102E2000111E1EBF1CEA13159EEA0C0F95EA0C0F2B
:102E300000F06F8081EA030423EA4C134EEAD47E4B
:102E400021EA4C1141F4801143F48013AE44A1FBFC
:102E5000024CA0FB0365AEF17F7E361955EB0C05E5
:102E6000A1FB034C4CF10003A0FB021C16EB0C066B
:102E7000654153F10003094218BF46F0010613F4FF
:102E8000007F0BD14FEA03314FEA0530340341EAAA
:102E9000155140EA16506FF003020AE04FEAC321D1
:102EA0004FEAC520F40241EA555140EA56506FF00E
:102EB000020202EB2E4201EB025585EACE710AD0E6
:102EC0005FEA440C18BF24F0004450F1000041F1C7
:102ED000000120EAD47040F2FE7C624500D270BD51
:102EE000A84214BF4FF080444FF04044002E08BF6A
:102EF0000024BEF1806FA8BFA1F1C041BDE87040C1
:102F000080F282804FF0000001F1C04101F00041E9
:102F100070479EEA0C0F0CEA131518BF95EA0C0FC8
:102F200006D04FF0000081EA030E0EF0004170BDA4
:102F300000F01CF88900013E00F007B800F009B865
:102F40004FEA430C5FEA5C5C08D081EA030100F0C1
:102F50005BB84FEA410C5FEA5C5CF6D14FF00000D1
:102F6000014970470000FF070000F87F0EF1020ED4
:102F70002EF0030E5EF8046B364205D4012A43EBB3
:102F8000030515F5001F12D8012841EB010C1CF5B3
:102F9000001F0CD80ED14FEAD17C15F5001F0CEBA9
:102FA0004C0C0CF1020C08BF4CEBD37C04E04FF04E
:102FB000080C01E04FEAD37C0CEB4C0526FA05F631
:102FC00006F00706B6F1040C06D20EEB860CBDE83F
:102FD00070404CF0010C6047DFE80CF0090B020276
:102FE0004FF000414FF00000A1F5002170BD1946DF
:102FF0001046012851EB010418BFD4F5001484BF1A
:10300000002001F0004170BD0808A0F500114FEA52
:103010003101704753EA010C17D41CF5801F58BFCB
:10302000BCF5801F00F106808B4218BF704708BFB7
:103030008242704707D713F5801F58BF11F5801FD4
:1030400019D48B4270479B4270471CF5801F08D5EE
:10305000BCF5801FF7D5994218BF704708BF904252
:1030600070474FF4001C1CEB430F38BF1CEB410FA3
:1030700001D2994270470FB40CBC03BCFFF7C1BE2C
:103080005FEA410C5FEA5C5CACF580635B1C39D4A1
:10309000D3F1340240F34580B2F1200314DA4FF04B
:1030A000010C0CFA02FCACF101030340B3EB5C022F
:1030B00020EA030008BF10EA0C0F98BF704710EB1E
:1030C0000C0041F1000170470AD0C3F1200201FA5F
:1030D00002FC012821FA03F101FA03F14CF100008E
:1030E0004FF0010C0CFA03FCACF10103B0F1004FFE
:1030F00021EA030108BF11EA0C0F4FF0000088BF5E
:1031000061447047B3F1FF3F28BF50EAC12C01F082
:1031100000414FF0000084BF41F07C5141F4700148
:103120007047B3F5806FB8BF704770B5FFF71EFFEB
:1031300040DBB6BE91EA030F10B581F000413FF5C8
:10314000A1AB83F0004300F009B8000010B591EA8C
:10315000030F48BF83F000433FF594AB841A71EB33
:10316000030C07D212198CF0004C43EB0C03001B2C
:1031700061EB0C01DFF8A4E14FEA1154A4EB135CFE
:103180001EEA430F18BF9EEA445F00F0B08023EAB6
:103190006E03524221EA0451C3EB6E0338BF5B1E3B
:1031A000DCF1200E25D322FA0CFE10EB0E0043FAC0
:1031B0000CFE41EB0E01CCF1200E03FA0EFE10EBDB
:1031C0000E0051F10001CCF1200E29D412FA0EF2BA
:1031D00001EB0451BDE8104058BF7047401C1CBFB4
:1031E000B2F1004F704700280CBF491C20F00100CD
:1031F000704712EB020E43EB030218BF4FF0010EB3
:103200004EEA4202ACF1200CDCF11E0E54D943FA16
:103210000CFE10EB0E0051F1FF31CCF11E0ED5D596
:103220000EF1010E12FA0EFE404141EB010101EBDD
:10323000445C5FEA5C5C10D910EBDE7001EB04517A
:1032400038BFBEF1004FBDE8104018BF70470028DE
:103250000CBF491C20F00100704730D24FEAD42C3B
:1032600011F5001124F400641BD0B1FA81F20B3A7D
:10327000A41AA41ED2F12003914030FA03F319439B
:10328000904001EBCC71002C01EB0451BDE81040E3
:10329000A8BF704701F1C0414FF0000001F00041AC
:1032A0007047B0FA80F310FA03F100D110BDE41AB0
:1032B000173C4805C90AE4E701EB045110BD491069
:1032C00001EB0451BDE810404FEA300002E04FF03E
:1032D000000170474A0008BF0042F8D0B2F5001F55
:1032E00028BF704701F000414FF0000070479EEA90
:1032F000445F07D011EA5E0FBDE8104004BF002113
:1033000000207047BDE8104070B5FFF72FFE00BFEA
:1033100040DFF63E83F00041104670470000E0FFBA
:1033200043004FEAD30C4FEA3C0C43401FBF400719
:103330000CF1605113F0FE4F70471CF0006F03D189
:1033400000200CF0004170470CF0004343EA50703D
:1033500010B540EACC0000F00EF800BF000000926B
:103360004FEA0001FFF750BE4FF000414FF0000060
:10337000A1F5002170470EF1020E2EF0030E5EF84B
:10338000044B244204D44FEA4102B2F17F4F11D8DA
:103390004FEA4003B3F17F4F0CD80ED14FEAD07CF7
:1033A000B2F17F4F0CEB4C0C0CF1020C08BF4CEB54
:1033B000D17C04E04FF0080C01E04FEAD17C0CEB2B
:1033C0004C0324FA03F404F00704B4F1040C06D20D
:1033D0000EEB840CBDE810404CF0010C6047DFE8B8
:1033E0000CF0070802024FF00040A0F5800010BD6D
:1033F0000846420018BFD2F1807288BF00F000403A
:1034000010BDFF2141EAD050C0057047FDF76DB8EF
:103410000CF00F03092B08BF082000F059800A2B7D
:103420000BD0082B18BF704708BF1CF0400F0AD004
:103430004FF000004FF0000170471CF0400F18BF24
:103440004FF0004070471CF0100F08D020F0704380
:1034500000F07F4242EAD3014FEA4370704700F028
:10346000604021F07F4242EA000201F07F4040EAE2
:10347000727070474FF0FF0C4CF4E06C1CEA115373
:103480001CBF9CEA030C9445C2BFDA4201EB025117
:103490007047002B0DD0BCF1000F0FD0002A01F0B7
:1034A0000041A4BF41F0E04141F07F614FF00000D6
:1034B000704701F000414FF00000704750EA0133BF
:1034C0004FF09B0C18BF4CF0806C7FF47BAA7047C8
:1034D0001CF4801F11D01CF4E02F03D06FEACC3114
:1034E000490070474FF04050EFF3008222F07042E5
:1034F00042EA000282F3008870474FF000007047F4
:1035000000000000000000000000000000000404B3
:10351000040404000004000014140A000000000069
:103520000000000000000A0A1F0A0A1F0A0A000021
:1035300000040E1505060C14150E040000001215EB
:103540000D152E2C2A1200000000040A0A3615154B
:103550002916000002020100000000000000000027
:1035600010080804040404040808100002040408F5
:10357000080808080404020000000004150E0E15D7
:103580000400000000000008083E080800000000D9
:103590000000000000000000020201000000000026
:1035A000003F0000000000000000000000000000DC
:1035B00000020000002010100808040402020100AC
:1035C00000000E1111111111110E0000000004066F
:1035D00004040404040E000000000E11110804028B
:1035E000011F000000000E11100C1010110E000041
:1035F0000000080C0C0A091F081C000000001F0135
:10360000010F1110110E000000000C12010D13111A
:10361000110E000000001E1008080404040400003D
:1036200000000E11110E1111110E000000000E11FC
:103630001119161009060000000000000400000027
:10364000000400000000000000040000000404006A
:10365000000010080402020408100000000000002E
:103660003F003F00000000000000020408101008A6
:103670000402000000000E11110804040004000000
:1036800000001C22292D2D1D221C00000000040416
:103690000C0A0A1E1233000000000F12120E121242
:1036A000120F000000001E1101010101110E0000A7
:1036B00000000F1212121212120F000000001F124F
:1036C0000A0E0A02121F000000001F120A0E0A0250
:1036D0000207000000001C1201013911120C000049
:1036E00000003312121E12121233000000001F04D9
:1036F00004040404041F000000003E080808080831
:1037000008080907000037120A060A1212370000DB
:103710000000070202020202223F000000003B1BE1
:103720001B1B15151535000000003B1216161A1A42
:103730001217000000000E1111111111110E0000DE
:1037400000000F12120E02020207000000000E110C
:1037500011111117190E180000000F12120E0A1283
:103760001237000000001E1101060810110F0000A2
:1037700000001F1504040404040E000000003312AE
:1037800012121212120C000000003312120A0A0C5C
:10379000040400000000151515150E0A0A0A0000A1
:1037A00000001B0A0A04040A0A1B000000001B0A8E
:1037B0000A0A0404040E000000001F0908040402A1
:1037C000121F00001C0404040404040404041C006C
:1037D0000002020404040808081010000E0808087B
:1037E0000808080808080E00040A0000000000008D
:1037F0000000000000000000000000000000003F8A
:1038000002040000000000000000000000000000B2
:10381000000C121C123C000000030202020E1212E5
:10382000120E000000000000001C1202120C00002A
:1038300000181010101C1212123C000000000000B2
:10384000000C121E021C000000182404041E0404B4
:10385000041E000000000000003C120C021C221C90
:1038600000030202020E12121237000000040400CC
:1038700000060404040E000000080800000C0808FC
:103880000808080700030202021A0A060A130000C9
:103890000007040404040404041F000000000000E6
:1038A000000F15151515000000000000000F121282
:1038B0001237000000000000000C1212120C000071
:1038C00000000000000F1212120E0207000000009C
:1038D000001C1212121C103800000000001B06020F
:1038E0000207000000000000001E020C101E000075
:1038F00000000004041E0404041C0000000000007A
:10390000001B1212123C000000000000001B0A0AFB
:1039100004040000000000000015150E0A0A000053
:1039200000000000001B0A040A1B00000000000049
:10393000003312120C08040300000000001E0804EB
:10394000041E000018080808080C080808081800D9
:1039500008080808080808080808080806040404F5
:103960000408040404040600160900000000000016
:103970000000000000000000000000000000000047
:1039800000000000000000080808080808080000FF
:103990001818000000486C2412000000000000000D
:1039A000000000000000002424247F1212127F1265
:1039B000121200000000081C2A2A0A0C1828282AC3
:1039C0002A1C080800000022251515152A585454F1
:1039D000542200000000000C1212120A7625291150
:1039E000916E0000000606040300000000000000C5
:1039F0000000000000402010100808080808081007
:103A000010204000000204080810101010101008C8
:103A1000080402000000000008086B1C1C6B08086A
:103A20000000000000000000080808087F080808DF
:103A3000080000000000000000000000000000007E
:103A4000060604030000000000000000FE00000065
:103A50000000000000000000000000000000000066
:103A600006060000000080404020201010080804D6
:103A70000402020000000018244242424242424234
:103A800024180000000000080E08080808080808AC
:103A9000083E00000000003C424242202010080482
:103AA000427E00000000003C42422018204040427C
:103AB000221C0000000000203028242422227E2026
:103AC000207800000000007E0202021A26404042D8
:103AD000221C0000000000382402021A2642424242
:103AE000241800000000007E222210100808080898
:103AF000080800000000003C4242422418244242D0
:103B0000423C0000000000182442424264584040F9
:103B1000241C000000000000000018180000000035
:103B2000181800000000000000000008000000005D
:103B300000080804000000402010080402040810D7
:103B4000204000000000000000007F0000007F0017
:103B500000000000000000020408102040201008AF
:103B6000040200000000003C4242464020101000C9
:103B7000181800000000001C225A555555552D42BA
:103B8000221C00000000000808181414243C2242E3
:103B900042E700000000001F2222221E2242424271
:103BA000221F00000000007C42420101010101428D
:103BB000221C00000000001F2242424242424242B8
:103BC000221F00000000003F4212121E1212024289
:103BD000423F00000000003F4212121E1212020279
:103BE000020700000000003C222201010171212295
:103BF000221C0000000000E7424242427E42424254
:103C000042E700000000003E08080808080808080D
:103C1000083E00000000007C101010101010101062
:103C20001010110F0000007722120A0E0A12122241
:103C300022770000000000070202020202020202D4
:103C4000427F000000000077363636362A2A2A2ABC
:103C50002A6B0000000000E346464A4A5252526274
:103C6000624700000000001C2241414141414141A6
:103C7000221C00000000003F424242423E0202027B
:103C8000020700000000001C2241414141414D5308
:103C9000321C60000000003F4242423E12122222CB
:103CA00042C700000000007C42420204182040424B
:103CB000423E00000000007F490808080808080884
:103CC000081C0000000000E74242424242424242D9
:103CD000423C0000000000E7424222242414141851
:103CE000080800000000006B494949495555362233
:103CF00022220000000000E742242418181824247F
:103D000042E7000000000077222214140808080887
:103D1000081C00000000007E21201010080404424E
:103D2000423F00000078080808080808080808084A
:103D30000808780000000202040408080810102097
:103D400020204040001E10101010101010101010F5
:103D500010101E00003844000000000000000000A9
:103D60000000000000000000000000000000000053
:103D7000000000FF00060800000000000000000036
:103D800000000000000000000000003C42784442B7
:103D900042FC0000000000030202021A26424242D6
:103DA000261A000000000000000000384402020251
:103DB00044380000000000604040407844424242E5
:103DC00064D80000000000000000003C427E0202B7
:103DD000423C0000000000F08808087E080808083F
:103DE000083E0000000000000000007C22221C02AF
:103DF0003C42423C000000030202023A4642424278
:103E000042E700000000000C0C00000E0808080843
:103E1000083E000000000030300000382020202044
:103E20002020221E0000000302020272120A161253
:103E3000227700000000000E08080808080808089B
:103E4000083E0000000000000000007F9292929265
:103E500092B70000000000000000003B46424242D2
:103E600042E70000000000000000003C42424242E5
:103E7000423C0000000000000000001B26424242BD
:103E8000221E020700000000000000784442424267
:103E9000447840E000000000000000774C04040477
:103EA000041F0000000000000000007C42023C40B3
:103EB000423E0000000000000008083E0808080814
:103EC000083000000000000000000063424242424F
:103ED00062DC000000000000000000E7422424141F
:103EE0000808000000000000000000EB494955559B
:103EF000222200000000000000000076241818189C
:103F0000246E000000000000000000E7422424149A
:103F100018080807000000000000007E22100808B2
:103F2000447E000000C020202020201020202020DF
:103F30002020C000101010101010101010101010C1
:103F400010101010000608080808081008080808D3
:103F5000080806000C32C20000000000000000004B
:103F60000000000000000000000000000000000051
:103F70000000000000000000000000000000000041
:103F80000000000000000000000000000000000031
:103F90000000000000000000000000006000600061
:103FA00060006000600060006000400020002000B1
:103FB00020000000000000006000600060000000C1
:103FC0000000000000000000600660063003980159
:103FD0008800440000000000000000000000000015
:103FE00000000000000000000000000000000000D1
:103FF000000000000000000000000000100210029D
:1040000010021002FE07FE0708020801080108015D
:104010000801FE07FE070401040104010401000079
:104020000000000000000000000040004000F0011F
:1040300058034C03CC034C0058007000E000C00152
:10404000C00140034C035C034C034801F0004000F6
:104050004000000000000000000000000E010A0106
:10406000910091009100510051003A00AE03A0026E
:1040700050045004480448044804840284030000A7
:1040800000000000000000000000000038006C008C
:104090006C006C006C006C002C0098071C011A016D
:1040A000330133016301E300C308C6093C07000084
:1040B00000000000000000000C001C0010001000B8
:1040C00008000400000000000000000000000000E4
:1040D00000000000000000000000000000000000E0
:1040E0000000000000000000000400020001800049
:1040F0008000400040002000200020002000200020
:1041000020002000400040008000800000010002EC
:10411000000400000000000002000400080010007D
:1041200010002000200040004000400040004000FF
:104130004000400020002000100010000800040093
:10414000020000000000000000000000000000006D
:104150004000C0004000460C4E0FD001F0015E0F41
:10416000460C40004000400000000000000000003D
:10417000000000000000000000000000000000003F
:10418000000040004000400040004000FE0F4000A2
:10419000400040004000400000000000000000001F
:1041A000000000000000000000000000000000000F
:1041B00000000000000000000000000000000000FF
:1041C00000000000000000000C001C0010001000A7
:1041D00008000400000000000000000000000000D3
:1041E000000000000000000000000000FE070000CA
:1041F00000000000000000000000000000000000BF
:1042000000000000000000000000000000000000AE
:10421000000000000000000000000000000000009E
:1042200000000000000000001C001C001C0000003A
:10423000000000000000000000040006000200036F
:10424000000100018000800040004000600020006C
:10425000200010001000080008000C0004000600F8
:104260000200000000000000000000000000F0005C
:1042700098010C030C03060606060606060606064B
:104280000606060606060C030C039801F000000063
:1042900000000000000000000000000000004000DE
:1042A0007C006000600060006000600060006000F2
:1042B000600060006000600060006000FC030000BF
:1042C0000000000000000000000000000000F800F6
:1042D0008401020306030603000300018001C000FD
:1042E000600020001000080204020602FE03000025
:1042F0000000000000000000000000000000780046
:10430000C6008601860180018001C0007000800126
:10431000000100030003060306038601F800000005
:10432000000000000000000000000000000080010C
:104330008001C001A001A0019001880188018401D1
:104340008201FE0F8001800180018001E0070000F2
:104350000000000000000000000000000000FC035E
:1043600004000400040004000400F4008C010403B1
:10437000000300030603060382018401F800000025
:104380000000000000000000000000000000E0014C
:1043900018030C030C0004000600E60116030E06C9
:1043A00006060606060604060C021803F0000000C6
:1043B0000000000000000000000000000000F807FE
:1043C0000C0604020401000100018000800040008E
:1043D000400040006000600060006000600000007D
:1043E0000000000000000000000000000000F801D4
:1043F0000C030606060606060C021C03F000C801A4
:104400000C0306060606060606060C03F00100006D
:104410000000000000000000000000000000F000AC
:104420000C010C03060206060606060606078C06A5
:1044300078060006000300030C018C0178000000E0
:10444000000000000000000000000000000000006C
:104450000000000000000000E000E000E0000000BC
:104460000000000000000000E000E000E0000000AC
:10447000000000000000000000000000000000003C
:10448000000000000000000060006000000000006C
:10449000000000000000000000006000600040001C
:1044A00020002000000000000000000000040002C6
:1044B00000018000400020001000080004000800F7
:1044C00010002000400080000001000200040000F5
:1044D00000000000000000000000000000000000DC
:1044E0000000000000000000FE07000000000000C7
:1044F000FE070000000000000000000000000000B7
:10450000000000000000000000000000040008009F
:1045100010002000400080000001000200040002A2
:10452000000180004000200010000800040000008E
:104530000000000000000000000000000000E00398
:104540001806040C040C0C0C0C0C00078001400035
:104550004000400000000000E000E000E00000003B
:10456000000000000000000000000000E000180350
:104570000C02CC0564056605A605B604B604B604AF
:10458000B604B602E4010C040C021803F0000000AB
:1045900000000000000000000000000000006000BB
:1045A00060005000D0009000900088008801080151
:1045B000F801040304030402020202060F0F0000C4
:1045C0000000000000000000000000000000FE00ED
:1045D0008C030C030C030C030C038C01FC000C0378
:1045E0000C020C060C060C060C060C03FE01000067
:1045F0000000000000000000000000000000E003D8
:1046000018030C060C04040406000600060006004D
:104610000600060006040C040C021803F00000005B
:1046200000000000000000000000000000007F000B
:104630008C010C030C030C060C060C060C060C0675
:104640000C060C060C060C030C038C017F0000000A
:104650000000000000000000000000000000FF0358
:10466000060306040604060086008600FE00860097
:10467000860086000600060406040602FF0300000A
:104680000000000000000000000000000000FF0328
:10469000060306040604060086008600FE00860067
:1046A0008600860006000600060006001F000000C7
:1046B0000000000000000000000000000000F0000A
:1046C00018010C020C020402060006000600060097
:1046D000C60F060306030C030C031803F0000000CA
:1046E00000000000000000000000000000000F0FAC
:1046F000060606060606060606060606FE07060661
:104700000606060606060606060606060F0F000043
:104710000000000000000000000000000000FC039A
:104720006000600060006000600060006000600089
:10473000600060006000600060006000FC0300003A
:104740000000000000000000000000000000F8076A
:10475000C000C000C000C000C000C000C000C00059
:10476000C000C000C000C000C000C000C000C60043
:1047700066003C0000000000000000000000CF03C5
:104780008601C60046002600160036002E006E0088
:104790004600C60086008601060106038F0700005A
:1047A00000000000000000000000000000001F00EA
:1047B00006000600060006000600060006000600C9
:1047C000060006000600060406040602FF030000B9
:1047D00000000000000000000000000000000707CB
:1047E000860386038E038E034E034E034A035A0349
:1047F0005A033A03320332033203120387070000DD
:1048000000000000000000000000000000008E0F0B
:104810000C021C021C0234023402640264024402D0
:10482000C402840284038403040304031F020000FF
:104830000000000000000000000000000000F00088
:1048400098010C030C020606060606060606060676
:104850000606060606060C020C039801F00000008E
:104860000000000000000000000000000000FF0049
:104870000603060606060606060606068603FE006C
:104880000600060006000600060006001F000000E5
:104890000000000000000000000000000000F00028
:1048A00098010C030C020606060606060606060616
:1048B0000606060676064C02CC039801F000800737
:1048C0000003000000000000000000000000FF01E5
:1048D000060306060606060606060603FE00460052
:1048E000C600860086010603060306060F0E0000BA
:1048F0000000000000000000000000000000F802BE
:104900000C030602060206000E003C00F800E0035D
:10491000800300070206020606060C03F0010000F1
:104920000000000000000000000000000000FE0782
:10493000620461086108600060006000600060005F
:10494000600060006000600060006000F80100002E
:1049500000000000000000000000000000001E0732
:104960000C020C020C020C020C020C020C020C02D7
:104970000C020C020C020C020C021801F0000000E8
:1049800000000000000000000000000000000F0711
:104990000602040104010C010C0188008800980043
:1049A00098005000500070003000200020000000EF
:1049B0000000000000000000000000000000F70EF2
:1049C000620442044604460464026402E402E4020F
:1049D0009C029C01980198018801880088000000D1
:1049E00000000000000000000000000000009E0722
:1049F0000C01080118019000B00060002000600068
:104A00006000D00090008801080104038E070000B8
:104A100000000000000000000000000000000F0F78
:104A2000060404020C0208011801B800B00070006E
:104A3000600060006000600060006000F80100003D
:104A40000000000000000000000000000000FC0763
:104A50000C0206030201800180004000400020009B
:104A600020001000180008040C040402FE030000DB
:104A70000000000000000000E003200020002000F3
:104A80002000200020002000200020002000200026
:104A90002000200020002000200020002000200016
:104AA000E00300000000000000000000040004001B
:104AB0000800080010001000100020002000400036
:104AC0004000C000800080000001000100020002E0
:104AD00000020004000000007C0040004000400094
:104AE00040004000400040004000400040004000C6
:104AF00040004000400040004000400040004000B6
:104B00007C00000000006000900008010000000030
:104B10000000000000000000000000000000000095
:104B20000000000000000000000000000000000085
:104B30000000000000000000000000000000000075
:104B40000000000000000000000000000000000065
:104B50000000000000000000000000000000000055
:104B60000000FF0F000000001800600000000000BF
:104B70000000000000000000000000000000000035
:104B80000000000000000000000000000000000025
:104B90000000000000000000000000000000000015
:104BA0000000000000000000F0010C030C030003F3
:104BB000E0031C030E03060306038E0B7C0E0000AD
:104BC00000000000000000000000000008000E00CF
:104BD0000C000C000C000C00CC013C031C060C0665
:104BE0000C060C060C060C060C021C03E40100006B
:104BF00000000000000000000000000000000000B5
:104C00000000000000000000F0008C018C01860113
:104C100006000600060006020C020C01F00000006F
:104C20000000000000000000000000000002C003BF
:104C3000000300030003000378038C030C03060346
:104C4000060306030603060304038C07780100002D
:104C50000000000000000000000000000000000054
:104C60000000000000000000E001180308020C062C
:104C70000C06FC070C000C0018041802E0010000F0
:104C80000000000000000000000000000000C00361
:104C90006006300630003000FE0130003000300089
:104CA000300030003000300030003000FC010000E7
:104CB00000000000000000000000000000000000F4
:104CC0000000000000000000F007D8068C018C01F5
:104CD0008C019801F8000C00FC00CC0306030603CD
:104CE0008E03F800000000000000000008000E0025
:104CF0000C000C000C000C00EC011C030C030C035A
:104D00000C030C030C030C030C030C039E070000A4
:104D10000000000000000000000000000000600033
:104D200060000000000040007C0060006000600047
:104D3000600060006000600060006000FC03000034
:104D40000000000000000000000000000000C001A2
:104D5000C001000000000001F0018001800180011D
:104D6000800180018001800180018001800180013B
:104D7000CC007C00000000000000000008000E00D5
:104D80000C000C000C000C008C038C008C004C0000
:104D90006C005C008C008C010C010C039E07000071
:104DA00000000000000000000000000040007C0047
:104DB00060006000600060006000600060006000F3
:104DC000600060006000600060006000FC030000A4
:104DD00000000000000000000000000000000000D3
:104DE00000000000000000003707EE0666066606B9
:104DF000660666066606660666066606FF0F00001D
:104E000000000000000000000000000000000000A2
:104E10000000000000000000EE011C030C030C0366
:104E20000C030C030C030C030C030C039E07000083
:104E30000000000000000000000000000000000072
:104E40000000000000000000F00098010C030606BE
:104E500006060606060606060C030C03F000000014
:104E60000000000000000000000000000000000042
:104E70000000000000000000EE011C030C060C0600
:104E80000C060C060C060C060C031C03EC010C00B3
:104E90000C003E00000000000000000000000000C8
:104EA000000000000000000078028C030C030603E1
:104EB000060306030603060304038C0378030003BA
:104EC0000003C00700000000000000000000000018
:104ED00000000000000000009F035806380618007C
:104EE000180018001800180018001800FF00000033
:104EF00000000000000000000000000000000000B2
:104F00000000000000000000F0031C030C020C0273
:104F10003800F000C003040304038C03FC0100000C
:104F20000000000000000000000000000000000081
:104F30002000200030003000FE0130003000300042
:104F4000300030003000300030023002E00100005C
:104F50000000000000000000000000000000000051
:104F600000000000000008028E030C030C030C0379
:104F70000C030C030C030C030C039C0778010000CA
:104F80000000000000000000000000000000000021
:104F900000000000000000001E070C0208010801CC
:104FA00018019000B000B000600060002000000018
:104FB00000000000000000000000000000000000F1
:104FC0000000000000000000F70E620446046402C6
:104FD0006402EC029C01980198019801080000000D
:104FE00000000000000000000000000000000000C1
:104FF0000000000000000000BC0718011001B00014
:1050000060006000E0009000080108039E070000B7
:105010000000000000000000000000000000000090
:1050200000000000000000009E07080108010801C0
:1050300090009000B0006000600060002000200040
:1050400024001C0000000000000000000000000020
:105050000000000000000000FC018401C4004400C6
:10506000600020003000180208020C03FC01000060
:1050700000000000000000000003800080008000AD
:105080008000800080008000800040002000400000
:105090008000800080008000800080008000800010
:1050A000000300004000400040004000400040007D
:1050B00040004000400040004000400040004000F0
:1050C00040004000400040004000400040004000E0
:1050D00040004000000000000C0010001000100014
:1050E00010001000100010001000200040002000F0
:1050F0001000100010001000100010001000100030
:105100000C00000000001C002204C2048003000008
:10511000000000000000000000000000000000008F
:10512000000000000000000000000000000000007F
:10513000000000000000000000000000000000006F
:10514000000000000000000000000000000000005F
:10515000000000000000000000000000000000004F
:10516000000000000000000000000000000000003F
:105170000000000000000000000000000000C0016E
:10518000C001C001C001C001C001C0018000800099
:10519000800080008000800080000000000000008F
:1051A00000008001C003C003800100000000000077
:1051B00000000000000000000000E01CE01CF01EE9
:1051C000700E38071803080184000000000000007A
:1051D00000000000000000000000000000000000CF
:1051E00000000000000000000000000000000000BF
:1051F00000000000000000000000000000000000AF
:1052000020102010201020102010FE7FFE7F10089C
:10521000100810081008100810081008FE7FFE7F04
:105220000804080408040804080400000000000042
:10523000000000000000000000000000000100016C
:10524000C007601910311831183918393801700148
:10525000E001C0038007000F001D003900311C3140
:105260001C310C310C11180DE00700010001000188
:10527000000000000000000000000000000000002E
:105280001C1036186308630C630463046302630232
:105290006301361D9C378022806340634063206336
:1052A0002063306310221836081C00000000000044
:1052B00000000000000000000000000000000000EE
:1052C000F00098018C018C018C018C018C00CC00C9
:1052D0007800183E1C083608320863046304C304CF
:1052E000C303834306438E26781C000000000000A1
:1052F000000000000000000000001C003C003C001A
:105300003000300010000C0006000000000000001B
:10531000000000000000000000000000000000008D
:10532000000000000000000000000000000000007D
:1053300000000000000000000000004000200010FD
:105340000008000C000400060003000300038001B5
:1053500080018001800180018001800180010003C3
:105360000003000300060006000C000800100020E7
:1053700000400000000000000000020004000800DF
:105380001000300020006000C000C000C00080019C
:105390008001800180018001800180018001C000C6
:1053A000C000C00060006000300010000800040071
:1053B00002000000000000000000000000000000EB
:1053C0000000000000018003800300011C713C7993
:1053D000783DC0070001C007783D3C791C71000191
:1053E0008003800380010000000000000000000036
:1053F00000000000000000000000000000000000AD
:105400000000000000000001000100010001000197
:1054100000010001FC7F000100010001000100010A
:10542000000100010000000000000000000000007A
:10543000000000000000000000000000000000006C
:10544000000000000000000000000000000000005C
:10545000000000000000000000000000000000004C
:10546000000000001C003C003C0030003000100038
:105470000C0006000000000000000000000000001A
:10548000000000000000000000000000000000001C
:1054900000000000FE7F000000000000000000008F
:1054A00000000000000000000000000000000000FC
:1054B00000000000000000000000000000000000EC
:1054C00000000000000000000000000000000000DC
:1054D00000000000000000000000000000000000CC
:1054E000000018003C003C00180000000000000014
:1054F00000000000000000000000004000600020EC
:105500000030001000180008000C00040006000223
:105510000003000180018000C00040006000200006
:1055200030001000180008000C0004000600020003
:10553000000000000000000000000000000000006B
:10554000C007600C30181830183018200C600C6040
:105550000C600C600C600C600C600C600C6018201F
:10556000183018303018600CC00700000000000030
:10557000000000000000000000000000000000002B
:1055800000018001F801800180018001800180011B
:105590008001800180018001800180018001800103
:1055A000800180018001C003F81F0000000000009E
:1055B00000000000000000000000000000000000EB
:1055C000E007101C0818043004300C300C30003098
:1055D00000180008000400020001800040002020A4
:1055E000102008200430FC1FFC1F000000000000F9
:1055F00000000000000000000000000000000000AB
:10560000E003180E0C0C0C180C180C180018000CE9
:105610000006C003000E00180010003000300C30EF
:105620000C300C100C18180CE003000000000000F7
:10563000000000000000000000000000000000006A
:10564000000C000E000E000F800E800E400E600E4B
:10565000200E100E100E080E040E040EFE7F000E1B
:10566000000E000E000E000E000EC07F00000000B5
:10567000000000000000000000000000000000002A
:10568000F03FF03F10001000100008000800C807AD
:10569000280C1818081000300030003000300C3092
:1056A0000C3004180418080CF0030000000000007F
:1056B00000000000000000000000000000000000EA
:1056C000800FC010203010301800180008000C00A7
:1056D0008C0F6C183C301C600C600C600C600C6013
:1056E0001860182030306018C0070000000000006B
:1056F00000000000000000000000000000000000AA
:10570000F83FF83F1C100C080408040400040002D1
:105710000002000100010001800080008000C00044
:10572000C000C000C000C000C000000000000000B9
:105730000000000000000000000000000000000069
:10574000E007300C18180C300C300C301C303818B6
:105750007008E007B007180E0C1C0638063006303B
:10576000063006300C18180CE003000000000000A2
:105770000000000000000000000000000000000029
:10578000E00318040C080C1806100630063006302A
:10579000063006380C3C1836F0310030001800187E
:1057A00000180C0C0C060C03F001000000000000B7
:1057B00000000000000000000000000000000000E9
:1057C0000000000000000000000000000000800158
:1057D000C003C003800100000000000000000000C2
:1057E00000008001C003C003800100000000000031
:1057F00000000000000000000000000000000000A9
:105800000000000000000000000000000000C000D8
:10581000C0000000000000000000000000000000C8
:10582000000000000000C000C000800080004000B8
:105830004000000000000000000000000000002008
:10584000001000080004000600038001C000600092
:10585000300018000C00180030006000C00080010B
:1058600000030006000400080010002000000000F3
:105870000000000000000000000000000000000028
:105880000000000000000000000000000000FE7F9B
:1058900000000000000000000000FE7F000000008B
:1058A00000000000000000000000000000000000F8
:1058B00000000000000000000000000000000400E4
:1058C0000800100020006000C000800100030006F6
:1058D000000C001800300018000C000600038001C6
:1058E000C00060002000100008000400000000005C
:1058F0000000000000000000000000000000C007E1
:105900003018083008600C601C601C601C6000309F
:10591000001C000600018000800080008000000064
:1059200000008001C003C0038001000000000000EF
:105930000000000000000000000000000000000067
:10594000C0076018103018200C2F8C4D864CC64CA8
:10595000C64C664C66446644662666266615CC1CB4
:105960000C40082018303018C0070000000000006C
:105970000000000000000000000000000000000126
:10598000C001C001C00140016003200320032003C7
:105990003006100610061006F80F080C080C080C4C
:1059A0000C0C0418041806181F7C000000000000EE
:1059B00000000000000000000000000000000000E7
:1059C000FE07181C183818301830183018301818FE
:1059D000180CF8071818183018201860186018608C
:1059E0001860186018301818FE0F00000000000042
:1059F00000000000000000000000000000000000A7
:105A0000C0276038103018200C400C4004000600FD
:105A100006000600060006000600060006000C4010
:105A20000C400C2018303018C007000000000000A7
:105A30000000000000000000000000000000000066
:105A4000FE03180E18181830183018301860186037
:105A500018601860186018601860186018601830B6
:105A6000183018101818180EFE030000000000006F
:105A70000000000000000000000000000000000026
:105A8000FE3F183018201860184018001808180831
:105A9000180CF80F180C180818081800180018002F
:105AA0001840184018201830FE3F00000000000089
:105AB00000000000000000000000000000000000E6
:105AC000FE7F1870184018C01880180018101810A1
:105AD0001818F81F181818101810180018001800B7
